:03000000021013D8
:0C101300787FE4F6D8FD758110020FFB19
:100DD0007FBFDFEFF7FBFDFE00183C7E1818180000
:100DE000183C7E18181800183C7E18181800183C7B
:100DF0007E18181800183C7E18181800183C7E1829
:100E0000181800183C7E18181800183C7E1818187E
:100E100000183C7E18181800001818187E3C18009E
:100E200018001818187E3C183C18001818187E3C3A
:100E30007E3C18001818187E187E3C1800181818E8
:100E400018187E3C180018181818187E3C1800183E
:080E5000001818187E3C180080
:100F6700F583E58229F582E43583F583E493FF125F
:060F77000F9D7F027E00C9
:100F7D00E4FDFCC3ED9FEC9E5015E4FBFA0BBB00AA
:0F0F8D00010AEB64794A70F50DBD00010C80E498
:010F9C002232
:100F9D00C2B6C2B5E4FEEFC4131313540124FF927D
:100FAD00B4EF25E0FFD2B60000C2B60EBE08E7D200
:050FBD00B50000C2B503
:010FC200220C
:100EA200E4F50DF50EE4F9E4FF120F9DE9900DD083
:100EB20093F580E50C75F008A424D8F582E4340D8E
:100EC200120F6709B908E0050EE50E7002050DC3A1
:100ED2009414E50D940040CD050CE50CB40803E430
:020EE200F50C0D
:010EE40022EB
:100EE500E4F50DF50EE4F9E4FF120F9DE9900DD040
:100EF50093F580E50C75F008A42418F582E4340E0A
:100F0500120F6709B908E0050EE50E7002050DC35D
:100F15009414E50D940040CD050CE50CB40803E4EC
:020F2500F50CC9
:010F270022A7
:100FC300E4F50AF50B120EE5050BE50B7002050AB5
:0B0FD300C39408E50A6480948040EAA3
:010FDE0022F0
:100FDF00E4F50AF50B120EA2050BE50B7002050ADC
:0B0FEF00C39408E50A6480948040EA87
:010FFA0022D4
:0B101F00EF1FAC0670011E4C70F622A3
:05102A007F01020F2808
:05102F007F02020F2802
:051034007F03020F28FC
:051039007F04020F28F6
:05103E007F05020F28F0
:100F2800EF75F06484F50BEF75F06484AFF0EF753E
:100F3800F00A84F50CEF75F00A8485F00D7F0A122B
:100F48000E58E4F50A740B250AF8E6FF6003120E42
:0F0F580058050AE50AC3940340EB7F0B020E58BD
:020E5800AD07E4
:100E5A00C2AFD2967FE87E0312101FC2967FD07E61
:100E6A000712101FE4FBD296ED30E00F7FB07E042C
:100E7A0012101FC2967F907E01800D7F907E011214
:100E8A00101FC2967FB07E0412101FEDC313FD0B14
:070E9A00BB08D3D296D2AFD2
:010EA100222E
:10080000309403020910AE0FAF107C007D0A120D68
:1008100045ED64024C7033F508750901E5101510BB
:100820007002150F120FC3AE0FAF107C007D0A12BD
:100830000D458DA075807F0509E50970020508C387
:100840009402E5086480948040D2AE0FAF107C0023
:100850007D0A120D45ED64034C7030F508750901F1
:10086000E51015107002150F120FC3AE0FAF107CFC
:10087000007D0A120D458DA00509E50970020508E5
:10088000C39403E5086480948040D5AE0FAF107C1C
:10089000007D0A120D45ED64044C7030F5087509B1
:1008A00001E51015107002150F120FC3AE0FAF1037
:1008B0007C007D0A120D458DA00509E50970020531
:1008C00008C39404E5086480948040D5AE0FAF104F
:1008D0007C007D0A120D45ED64054C7030F50875FD
:1008E0000901E51015107002150F120FC3AE0FAFFE
:1008F000107C007D0A120D458DA00509E5097002E6
:100900000508C39405E5086480948040D512102A38
:10091000309303020A1DAE0FAF107C007D0A120D4A
:1009200045ED64014C7030F5087509010510E510BE
:100930007002050F120FDFAE0FAF107C007D0A12A0
:100940000D458DA00509E50970020508C39402E56F
:10095000086480948040D5AE0FAF107C007D0A12F1
:100960000D45ED64034C7030F508750901E510156F
:10097000107002150F120FC3AE0FAF107C007D0A6E
:10098000120D458DA00509E50970020508C3940202
:10099000E5086480948040D5AE0FAF107C007D0ADE
:1009A000120D45ED64044C7030F508750901E51031
:1009B00015107002150F120FC3AE0FAF107C007D23
:1009C0000A120D458DA00509E50970020508C394BA
:1009D00003E5086480948040D5AE0FAF107C007DA5
:1009E0000A120D45ED64054C7030F508750901E5F6
:1009F0001015107002150F120FC3AE0FAF107C0050
:100A00007D0A120D458DA00509E50970020508C390
:100A10009404E5086480948040D512102F3092032E
:100A2000020B2AAE0FAF107C007D0A120D45ED645B
:100A3000014C7030F5087509010510E510700205CC
:100A40000F120FDFAE0FAF107C007D0A120D458D27
:100A5000A00509E50970020508C39403E508648050
:100A6000948040D5AE0FAF107C007D0A120D45ED8D
:100A700064024C7030F5087509010510E51070022C
:100A8000050F120FDFAE0FAF107C007D0A120D456F
:100A90008DA00509E50970020508C39402E5086404
:100AA00080948040D5AE0FAF107C007D0A120D45BA
:100AB000ED64044C7030F508750901E510151070EF
:100AC00002150F120FC3AE0FAF107C007D0A120D7E
:100AD000458DA00509E50970020508C39402E508E3
:100AE0006480948040D5AE0FAF107C007D0A120D5B
:100AF00045ED64054C7030F508750901E5101510D9
:100B00007002150F120FC3AE0FAF107C007D0A12DA
:100B10000D458DA00509E50970020508C39403E59C
:100B2000086480948040D5121034309103020C3751
:100B3000AE0FAF107C007D0A120D45ED64014C70C4
:100B400030F5087509010510E5107002050F120F48
:100B5000DFAE0FAF107C007D0A120D458DA0050998
:100B6000E50970020508C39404E508648094804098
:100B7000D5AE0FAF107C007D0A120D45ED64024C1E
:100B80007030F5087509010510E5107002050F12A7
:100B90000FDFAE0FAF107C007D0A120D458DA00552
:100BA00009E50970020508C39403E5086480948090
:100BB00040D5AE0FAF107C007D0A120D45ED6403E9
:100BC0004C7030F5087509010510E5107002050F2D
:100BD000120FDFAE0FAF107C007D0A120D458DA005
:100BE0000509E50970020508C39402E508648094CC
:100BF0008040D5AE0FAF107C007D0A120D45ED642C
:100C0000054C7030F508750901E5101510700215D6
:100C10000F120FC3AE0FAF107C007D0A120D458D71
:100C2000A00509E50970020508C39402E50864807F
:100C3000948040D5121039309003020D44AE0FAFAE
:100C4000107C007D0A120D45ED64014C7030F508F2
:100C50007509010510E5107002050F120FDFAE0FC8
:100C6000AF107C007D0A120D458DA00509E50970C5
:100C7000020508C39405E5086480948040D5AE0F52
:100C8000AF107C007D0A120D45ED64024C7030F50A
:100C9000087509010510E5107002050F120FDFAE8F
:100CA0000FAF107C007D0A120D458DA00509E509E6
:100CB00070020508C39404E5086480948040D5AEB2
:100CC0000FAF107C007D0A120D45ED64034C7030AF
:100CD000F5087509010510E5107002050F120FDF08
:100CE000AE0FAF107C007D0A120D458DA00509E501
:100CF0000970020508C39403E5086480948040D518
:100D0000AE0FAF107C007D0A120D45ED64044C70EF
:100D100030F5087509010510E5107002050F120F76
:100D2000DFAE0FAF107C007D0A120D458DA00509C6
:100D3000E50970020508C39402E5086480948040C8
:040D4000D512103E7A
:010D4400228C
:100FFB00750F00751001AE0FAF107C007D0A120D3E
:08100B00458DA012080080FBD6
:100D4500C2D5EC30E709B2D5E4C39DFDE49CFCEEC9
:100D550030E715B2D5E4C39FFFE49EFE120D7BC3B9
:100D6500E49DFDE49CFC8003120D7B30D507C3E4B4
:060D75009FFFE49EFE2238
:100D7B00BC000BBE0029EF8DF084FFADF022E4CC5C
:100D8B00F875F008EF2FFFEE33FEEC33FCEE9DEC25
:100D9B00984005FCEE9DFE0FD5F0E9E4CEFD22ED6B
:100DAB00F8F5F0EE8420D21CFEADF075F008EF2FB5
:100DBB00FFED33FD4007985006D5F0F222C398FDA6
:050DCB000FD5F0EA2243
:00000001FF
